{
  "_format": "hh-sol-artifact-1",
  "contractName": "Arbitrage",
  "sourceName": "contracts/Arbitrage.sol",
  "abi": [
    {
      "inputs": [
        {
          "internalType": "address",
          "name": "_sRouter",
          "type": "address"
        },
        {
          "internalType": "address",
          "name": "_qRouter",
          "type": "address"
        },
        {
          "internalType": "contract ILendingPoolAddressesProvider",
          "name": "_providerAddress",
          "type": "address"
        }
      ],
      "stateMutability": "nonpayable",
      "type": "constructor"
    },
    {
      "inputs": [],
      "name": "ADDRESSES_PROVIDER",
      "outputs": [
        {
          "internalType": "contract ILendingPoolAddressesProvider",
          "name": "",
          "type": "address"
        }
      ],
      "stateMutability": "view",
      "type": "function"
    },
    {
      "inputs": [],
      "name": "LENDING_POOL",
      "outputs": [
        {
          "internalType": "contract ILendingPool",
          "name": "",
          "type": "address"
        }
      ],
      "stateMutability": "view",
      "type": "function"
    },
    {
      "inputs": [
        {
          "internalType": "address[]",
          "name": "assets",
          "type": "address[]"
        },
        {
          "internalType": "uint256[]",
          "name": "amounts",
          "type": "uint256[]"
        },
        {
          "internalType": "uint256[]",
          "name": "premiums",
          "type": "uint256[]"
        },
        {
          "internalType": "address",
          "name": "initiator",
          "type": "address"
        },
        {
          "internalType": "bytes",
          "name": "params",
          "type": "bytes"
        }
      ],
      "name": "executeOperation",
      "outputs": [
        {
          "internalType": "bool",
          "name": "",
          "type": "bool"
        }
      ],
      "stateMutability": "nonpayable",
      "type": "function"
    },
    {
      "inputs": [
        {
          "internalType": "bool",
          "name": "_startOnQuickswap",
          "type": "bool"
        },
        {
          "internalType": "address",
          "name": "_token0",
          "type": "address"
        },
        {
          "internalType": "address",
          "name": "_token1",
          "type": "address"
        },
        {
          "internalType": "uint256",
          "name": "_flashAmount",
          "type": "uint256"
        }
      ],
      "name": "executeTrade",
      "outputs": [],
      "stateMutability": "nonpayable",
      "type": "function"
    },
    {
      "inputs": [],
      "name": "lendingPool",
      "outputs": [
        {
          "internalType": "contract ILendingPool",
          "name": "",
          "type": "address"
        }
      ],
      "stateMutability": "view",
      "type": "function"
    },
    {
      "inputs": [],
      "name": "owner",
      "outputs": [
        {
          "internalType": "address",
          "name": "",
          "type": "address"
        }
      ],
      "stateMutability": "view",
      "type": "function"
    },
    {
      "inputs": [],
      "name": "qRouter",
      "outputs": [
        {
          "internalType": "contract IUniswapV2Router02",
          "name": "",
          "type": "address"
        }
      ],
      "stateMutability": "view",
      "type": "function"
    },
    {
      "inputs": [],
      "name": "sRouter",
      "outputs": [
        {
          "internalType": "contract IUniswapV2Router02",
          "name": "",
          "type": "address"
        }
      ],
      "stateMutability": "view",
      "type": "function"
    }
  ],
  "bytecode": "0x6101206040523480156200001257600080fd5b50604051620024a4380380620024a4833981810160405281019062000038919062000339565b808073ffffffffffffffffffffffffffffffffffffffff1660808173ffffffffffffffffffffffffffffffffffffffff16815250508073ffffffffffffffffffffffffffffffffffffffff16630261bf8b6040518163ffffffff1660e01b815260040160206040518083038186803b158015620000b457600080fd5b505afa158015620000c9573d6000803e3d6000fd5b505050506040513d601f19601f82011682018060405250810190620000ef919062000395565b73ffffffffffffffffffffffffffffffffffffffff1660a08173ffffffffffffffffffffffffffffffffffffffff1681525050508273ffffffffffffffffffffffffffffffffffffffff1660c08173ffffffffffffffffffffffffffffffffffffffff16815250508173ffffffffffffffffffffffffffffffffffffffff1660e08173ffffffffffffffffffffffffffffffffffffffff16815250508073ffffffffffffffffffffffffffffffffffffffff16630261bf8b6040518163ffffffff1660e01b815260040160206040518083038186803b158015620001d257600080fd5b505afa158015620001e7573d6000803e3d6000fd5b505050506040513d601f19601f820116820180604052508101906200020d919062000395565b73ffffffffffffffffffffffffffffffffffffffff166101008173ffffffffffffffffffffffffffffffffffffffff1681525050336000806101000a81548173ffffffffffffffffffffffffffffffffffffffff021916908373ffffffffffffffffffffffffffffffffffffffff160217905550505050620003c7565b600080fd5b600073ffffffffffffffffffffffffffffffffffffffff82169050919050565b6000620002bc826200028f565b9050919050565b620002ce81620002af565b8114620002da57600080fd5b50565b600081519050620002ee81620002c3565b92915050565b60006200030182620002af565b9050919050565b6200031381620002f4565b81146200031f57600080fd5b50565b600081519050620003338162000308565b92915050565b6000806000606084860312156200035557620003546200028a565b5b60006200036586828701620002dd565b93505060206200037886828701620002dd565b92505060406200038b8682870162000322565b9150509250925092565b600060208284031215620003ae57620003ad6200028a565b5b6000620003be84828501620002dd565b91505092915050565b60805160a05160c05160e0516101005161206e62000436600039600081816105270152610dca0152600081816105cc01528181610e490152610f1901526000818161018f0152818161101b01526110eb015260008181610bd50152610dee015260006101b3015261206e6000f3fe608060405234801561001057600080fd5b50600436106100885760003560e01c80638da5cb5b1161005b5780638da5cb5b14610103578063920f5c8414610121578063a59a997314610151578063b4dcfc771461016f57610088565b8063017c64b01461008d5780630542975c146100ab5780631395dd23146100c9578063570b6606146100e5575b600080fd5b61009561018d565b6040516100a29190611233565b60405180910390f35b6100b36101b1565b6040516100c0919061126f565b60405180910390f35b6100e360048036038101906100de919061134a565b6101d5565b005b6100ed6105ca565b6040516100fa9190611233565b60405180910390f35b61010b6105ee565b60405161011891906113c0565b60405180910390f35b61013b600480360381019061013691906114ec565b610612565b60405161014891906115f7565b60405180910390f35b610159610dc8565b6040516101669190611633565b60405180910390f35b610177610dec565b6040516101849190611633565b60405180910390f35b7f000000000000000000000000000000000000000000000000000000000000000081565b7f000000000000000000000000000000000000000000000000000000000000000081565b60008054906101000a900473ffffffffffffffffffffffffffffffffffffffff1673ffffffffffffffffffffffffffffffffffffffff163373ffffffffffffffffffffffffffffffffffffffff1614610263576040517f08c379a000000000000000000000000000000000000000000000000000000000815260040161025a906116ab565b60405180910390fd5b60008373ffffffffffffffffffffffffffffffffffffffff166370a08231306040518263ffffffff1660e01b815260040161029e91906113c0565b60206040518083038186803b1580156102b657600080fd5b505afa1580156102ca573d6000803e3d6000fd5b505050506040513d601f19601f820116820180604052508101906102ee91906116e0565b905060003090506000600267ffffffffffffffff8111156103125761031161170d565b5b6040519080825280602002602001820160405280156103405781602001602082028036833780820191505090505b50905085816000815181106103585761035761173c565b5b602002602001019073ffffffffffffffffffffffffffffffffffffffff16908173ffffffffffffffffffffffffffffffffffffffff16815250508560016000815481106103a8576103a761173c565b5b9060005260206000200160006101000a81548173ffffffffffffffffffffffffffffffffffffffff021916908373ffffffffffffffffffffffffffffffffffffffff1602179055506000600167ffffffffffffffff81111561040d5761040c61170d565b5b60405190808252806020026020018201604052801561043b5781602001602082028036833780820191505090505b50905084816000815181106104535761045261173c565b5b6020026020010181815250508460026000815481106104755761047461173c565b5b90600052602060002001819055506000600167ffffffffffffffff8111156104a05761049f61170d565b5b6040519080825280602002602001820160405280156104ce5781602001602082028036833780820191505090505b5090506000816000815181106104e7576104e661173c565b5b60200260200101818152505060003090506000808b8b8b8b8b60405160200161051495949392919061177a565b60405160208183030381529060405290507f000000000000000000000000000000000000000000000000000000000000000073ffffffffffffffffffffffffffffffffffffffff1663ab9c4b5d888888888887896040518863ffffffff1660e01b815260040161058a97969594939291906119ff565b600060405180830381600087803b1580156105a457600080fd5b505af11580156105b8573d6000803e3d6000fd5b50505050505050505050505050505050565b7f000000000000000000000000000000000000000000000000000000000000000081565b60008054906101000a900473ffffffffffffffffffffffffffffffffffffffff1681565b600080600080600080878781019061062a9190611ac8565b9450945094509450945060008473ffffffffffffffffffffffffffffffffffffffff166370a08231306040518263ffffffff1660e01b815260040161066f91906113c0565b60206040518083038186803b15801561068757600080fd5b505afa15801561069b573d6000803e3d6000fd5b505050506040513d601f19601f820116820180604052508101906106bf91906116e0565b90508282826106ce9190611b72565b1461070e576040517f08c379a000000000000000000000000000000000000000000000000000000000815260040161070590611bf2565b60405180910390fd5b8d8d60008181106107225761072161173c565b5b90506020020135831461076a576040517f08c379a000000000000000000000000000000000000000000000000000000000815260040161076190611c84565b60405180910390fd5b6000600267ffffffffffffffff8111156107875761078661170d565b5b6040519080825280602002602001820160405280156107b55781602001602082028036833780820191505090505b50905085816000815181106107cd576107cc61173c565b5b602002602001019073ffffffffffffffffffffffffffffffffffffffff16908173ffffffffffffffffffffffffffffffffffffffff1681525050848160018151811061081c5761081b61173c565b5b602002602001019073ffffffffffffffffffffffffffffffffffffffff16908173ffffffffffffffffffffffffffffffffffffffff168152505086156109c35761086881856000610e10565b848160008151811061087d5761087c61173c565b5b602002602001019073ffffffffffffffffffffffffffffffffffffffff16908173ffffffffffffffffffffffffffffffffffffffff168152505085816001815181106108cc576108cb61173c565b5b602002602001019073ffffffffffffffffffffffffffffffffffffffff16908173ffffffffffffffffffffffffffffffffffffffff16815250506109be818673ffffffffffffffffffffffffffffffffffffffff166370a08231306040518263ffffffff1660e01b815260040161094391906113c0565b60206040518083038186803b15801561095b57600080fd5b505afa15801561096f573d6000803e3d6000fd5b505050506040513d601f19601f8201168201806040525081019061099391906116e0565b8f8f60008181106109a7576109a661173c565b5b90506020020135876109b99190611ca4565b610fe2565b610b26565b6109cf81856000610fe2565b84816000815181106109e4576109e361173c565b5b602002602001019073ffffffffffffffffffffffffffffffffffffffff16908173ffffffffffffffffffffffffffffffffffffffff16815250508581600181518110610a3357610a3261173c565b5b602002602001019073ffffffffffffffffffffffffffffffffffffffff16908173ffffffffffffffffffffffffffffffffffffffff1681525050610b25818673ffffffffffffffffffffffffffffffffffffffff166370a08231306040518263ffffffff1660e01b8152600401610aaa91906113c0565b60206040518083038186803b158015610ac257600080fd5b505afa158015610ad6573d6000803e3d6000fd5b505050506040513d601f19601f82011682018060405250810190610afa91906116e0565b8f8f6000818110610b0e57610b0d61173c565b5b9050602002013587610b209190611ca4565b610e10565b5b60005b6001811015610c795760008e8e83818110610b4757610b4661173c565b5b9050602002013560028381548110610b6257610b6161173c565b5b9060005260206000200154610b779190611ca4565b905060018281548110610b8d57610b8c61173c565b5b9060005260206000200160009054906101000a900473ffffffffffffffffffffffffffffffffffffffff1673ffffffffffffffffffffffffffffffffffffffff1663095ea7b37f0000000000000000000000000000000000000000000000000000000000000000836040518363ffffffff1660e01b8152600401610c12929190611cfa565b602060405180830381600087803b158015610c2c57600080fd5b505af1158015610c40573d6000803e3d6000fd5b505050506040513d601f19601f82011682018060405250810190610c649190611d38565b50508080610c7190611d65565b915050610b29565b508573ffffffffffffffffffffffffffffffffffffffff1663a9059cbb60008054906101000a900473ffffffffffffffffffffffffffffffffffffffff168873ffffffffffffffffffffffffffffffffffffffff166370a08231306040518263ffffffff1660e01b8152600401610cf091906113c0565b60206040518083038186803b158015610d0857600080fd5b505afa158015610d1c573d6000803e3d6000fd5b505050506040513d601f19601f82011682018060405250810190610d4091906116e0565b6040518363ffffffff1660e01b8152600401610d5d929190611cfa565b602060405180830381600087803b158015610d7757600080fd5b505af1158015610d8b573d6000803e3d6000fd5b505050506040513d601f19601f82011682018060405250810190610daf9190611d38565b5060019750505050505050509998505050505050505050565b7f000000000000000000000000000000000000000000000000000000000000000081565b7f000000000000000000000000000000000000000000000000000000000000000081565b82600081518110610e2457610e2361173c565b5b602002602001015173ffffffffffffffffffffffffffffffffffffffff1663095ea7b37f0000000000000000000000000000000000000000000000000000000000000000846040518363ffffffff1660e01b8152600401610e86929190611cfa565b602060405180830381600087803b158015610ea057600080fd5b505af1158015610eb4573d6000803e3d6000fd5b505050506040513d601f19601f82011682018060405250810190610ed89190611d38565b610f17576040517f08c379a0000000000000000000000000000000000000000000000000000000008152600401610f0e90611dfa565b60405180910390fd5b7f000000000000000000000000000000000000000000000000000000000000000073ffffffffffffffffffffffffffffffffffffffff166338ed1739838386306104b042610f659190611ca4565b6040518663ffffffff1660e01b8152600401610f85959493929190611e1a565b600060405180830381600087803b158015610f9f57600080fd5b505af1158015610fb3573d6000803e3d6000fd5b505050506040513d6000823e3d601f19601f82011682018060405250810190610fdc9190611f83565b50505050565b82600081518110610ff657610ff561173c565b5b602002602001015173ffffffffffffffffffffffffffffffffffffffff1663095ea7b37f0000000000000000000000000000000000000000000000000000000000000000846040518363ffffffff1660e01b8152600401611058929190611cfa565b602060405180830381600087803b15801561107257600080fd5b505af1158015611086573d6000803e3d6000fd5b505050506040513d601f19601f820116820180604052508101906110aa9190611d38565b6110e9576040517f08c379a00000000000000000000000000000000000000000000000000000000081526004016110e090612018565b60405180910390fd5b7f000000000000000000000000000000000000000000000000000000000000000073ffffffffffffffffffffffffffffffffffffffff166338ed1739838386306104b0426111379190611ca4565b6040518663ffffffff1660e01b8152600401611157959493929190611e1a565b600060405180830381600087803b15801561117157600080fd5b505af1158015611185573d6000803e3d6000fd5b505050506040513d6000823e3d601f19601f820116820180604052508101906111ae9190611f83565b50505050565b600073ffffffffffffffffffffffffffffffffffffffff82169050919050565b6000819050919050565b60006111f96111f46111ef846111b4565b6111d4565b6111b4565b9050919050565b600061120b826111de565b9050919050565b600061121d82611200565b9050919050565b61122d81611212565b82525050565b60006020820190506112486000830184611224565b92915050565b600061125982611200565b9050919050565b6112698161124e565b82525050565b60006020820190506112846000830184611260565b92915050565b6000604051905090565b600080fd5b600080fd5b60008115159050919050565b6112b38161129e565b81146112be57600080fd5b50565b6000813590506112d0816112aa565b92915050565b60006112e1826111b4565b9050919050565b6112f1816112d6565b81146112fc57600080fd5b50565b60008135905061130e816112e8565b92915050565b6000819050919050565b61132781611314565b811461133257600080fd5b50565b6000813590506113448161131e565b92915050565b6000806000806080858703121561136457611363611294565b5b6000611372878288016112c1565b9450506020611383878288016112ff565b9350506040611394878288016112ff565b92505060606113a587828801611335565b91505092959194509250565b6113ba816112d6565b82525050565b60006020820190506113d560008301846113b1565b92915050565b600080fd5b600080fd5b600080fd5b60008083601f840112611400576113ff6113db565b5b8235905067ffffffffffffffff81111561141d5761141c6113e0565b5b602083019150836020820283011115611439576114386113e5565b5b9250929050565b60008083601f840112611456576114556113db565b5b8235905067ffffffffffffffff811115611473576114726113e0565b5b60208301915083602082028301111561148f5761148e6113e5565b5b9250929050565b60008083601f8401126114ac576114ab6113db565b5b8235905067ffffffffffffffff8111156114c9576114c86113e0565b5b6020830191508360018202830111156114e5576114e46113e5565b5b9250929050565b600080600080600080600080600060a08a8c03121561150e5761150d611294565b5b60008a013567ffffffffffffffff81111561152c5761152b611299565b5b6115388c828d016113ea565b995099505060208a013567ffffffffffffffff81111561155b5761155a611299565b5b6115678c828d01611440565b975097505060408a013567ffffffffffffffff81111561158a57611589611299565b5b6115968c828d01611440565b955095505060606115a98c828d016112ff565b93505060808a013567ffffffffffffffff8111156115ca576115c9611299565b5b6115d68c828d01611496565b92509250509295985092959850929598565b6115f18161129e565b82525050565b600060208201905061160c60008301846115e8565b92915050565b600061161d82611200565b9050919050565b61162d81611612565b82525050565b60006020820190506116486000830184611624565b92915050565b600082825260208201905092915050565b7f4f6e6c79204f776e65722063616e206d616b65207468652063616c6c00000000600082015250565b6000611695601c8361164e565b91506116a08261165f565b602082019050919050565b600060208201905081810360008301526116c481611688565b9050919050565b6000815190506116da8161131e565b92915050565b6000602082840312156116f6576116f5611294565b5b6000611704848285016116cb565b91505092915050565b7f4e487b7100000000000000000000000000000000000000000000000000000000600052604160045260246000fd5b7f4e487b7100000000000000000000000000000000000000000000000000000000600052603260045260246000fd5b61177481611314565b82525050565b600060a08201905061178f60008301886115e8565b61179c60208301876113b1565b6117a960408301866113b1565b6117b6606083018561176b565b6117c3608083018461176b565b9695505050505050565b600081519050919050565b600082825260208201905092915050565b6000819050602082019050919050565b611802816112d6565b82525050565b600061181483836117f9565b60208301905092915050565b6000602082019050919050565b6000611838826117cd565b61184281856117d8565b935061184d836117e9565b8060005b8381101561187e5781516118658882611808565b975061187083611820565b925050600181019050611851565b5085935050505092915050565b600081519050919050565b600082825260208201905092915050565b6000819050602082019050919050565b6118c081611314565b82525050565b60006118d283836118b7565b60208301905092915050565b6000602082019050919050565b60006118f68261188b565b6119008185611896565b935061190b836118a7565b8060005b8381101561193c57815161192388826118c6565b975061192e836118de565b92505060018101905061190f565b5085935050505092915050565b600081519050919050565b600082825260208201905092915050565b60005b83811015611983578082015181840152602081019050611968565b83811115611992576000848401525b50505050565b6000601f19601f8301169050919050565b60006119b482611949565b6119be8185611954565b93506119ce818560208601611965565b6119d781611998565b840191505092915050565b600061ffff82169050919050565b6119f9816119e2565b82525050565b600060e082019050611a14600083018a6113b1565b8181036020830152611a26818961182d565b90508181036040830152611a3a81886118eb565b90508181036060830152611a4e81876118eb565b9050611a5d60808301866113b1565b81810360a0830152611a6f81856119a9565b9050611a7e60c08301846119f0565b98975050505050505050565b6000611a95826111b4565b9050919050565b611aa581611a8a565b8114611ab057600080fd5b50565b600081359050611ac281611a9c565b92915050565b600080600080600060a08688031215611ae457611ae3611294565b5b6000611af2888289016112c1565b9550506020611b0388828901611ab3565b9450506040611b1488828901611ab3565b9350506060611b2588828901611335565b9250506080611b3688828901611335565b9150509295509295909350565b7f4e487b7100000000000000000000000000000000000000000000000000000000600052601160045260246000fd5b6000611b7d82611314565b9150611b8883611314565b925082821015611b9b57611b9a611b43565b5b828203905092915050565b7f436f6e747261637420646964206e6f742067657420746865206c6f616e000000600082015250565b6000611bdc601d8361164e565b9150611be782611ba6565b602082019050919050565b60006020820190508181036000830152611c0b81611bcf565b9050919050565b7f466c61736820416d6f756e7420776173206e6f7420776861742077617320726560008201527f7175657374656400000000000000000000000000000000000000000000000000602082015250565b6000611c6e60278361164e565b9150611c7982611c12565b604082019050919050565b60006020820190508181036000830152611c9d81611c61565b9050919050565b6000611caf82611314565b9150611cba83611314565b9250827fffffffffffffffffffffffffffffffffffffffffffffffffffffffffffffffff03821115611cef57611cee611b43565b5b828201905092915050565b6000604082019050611d0f60008301856113b1565b611d1c602083018461176b565b9392505050565b600081519050611d32816112aa565b92915050565b600060208284031215611d4e57611d4d611294565b5b6000611d5c84828501611d23565b91505092915050565b6000611d7082611314565b91507fffffffffffffffffffffffffffffffffffffffffffffffffffffffffffffffff821415611da357611da2611b43565b5b600182019050919050565b7f517569636b7377617020617070726f76616c206661696c65642e000000000000600082015250565b6000611de4601a8361164e565b9150611def82611dae565b602082019050919050565b60006020820190508181036000830152611e1381611dd7565b9050919050565b600060a082019050611e2f600083018861176b565b611e3c602083018761176b565b8181036040830152611e4e818661182d565b9050611e5d60608301856113b1565b611e6a608083018461176b565b9695505050505050565b611e7d82611998565b810181811067ffffffffffffffff82111715611e9c57611e9b61170d565b5b80604052505050565b6000611eaf61128a565b9050611ebb8282611e74565b919050565b600067ffffffffffffffff821115611edb57611eda61170d565b5b602082029050602081019050919050565b6000611eff611efa84611ec0565b611ea5565b90508083825260208201905060208402830185811115611f2257611f216113e5565b5b835b81811015611f4b5780611f3788826116cb565b845260208401935050602081019050611f24565b5050509392505050565b600082601f830112611f6a57611f696113db565b5b8151611f7a848260208601611eec565b91505092915050565b600060208284031215611f9957611f98611294565b5b600082015167ffffffffffffffff811115611fb757611fb6611299565b5b611fc384828501611f55565b91505092915050565b7f53757368697377617020617070726f76616c206661696c65642e000000000000600082015250565b6000612002601a8361164e565b915061200d82611fcc565b602082019050919050565b6000602082019050818103600083015261203181611ff5565b905091905056fea2646970667358221220253a9b97a71731061acad3281b247c317f04f2cc319a71a4ad6bd91e19f03bbf64736f6c63430008090033",
  "linkReferences": {},
  "deployedLinkReferences": {}
}